{
  "_format": "hh-sol-artifact-1",
  "contractName": "ChordsNFT",
  "sourceName": "contracts/ChordsNFT.sol",
  "abi": [
    {
      "inputs": [],
      "stateMutability": "nonpayable",
      "type": "constructor"
    },
    {
      "inputs": [
        {
          "internalType": "address",
          "name": "sender",
          "type": "address"
        },
        {
          "internalType": "uint256",
          "name": "tokenId",
          "type": "uint256"
        },
        {
          "internalType": "address",
          "name": "owner",
          "type": "address"
        }
      ],
      "name": "ERC721IncorrectOwner",
      "type": "error"
    },
    {
      "inputs": [
        {
          "internalType": "address",
          "name": "operator",
          "type": "address"
        },
        {
          "internalType": "uint256",
          "name": "tokenId",
          "type": "uint256"
        }
      ],
      "name": "ERC721InsufficientApproval",
      "type": "error"
    },
    {
      "inputs": [
        {
          "internalType": "address",
          "name": "approver",
          "type": "address"
        }
      ],
      "name": "ERC721InvalidApprover",
      "type": "error"
    },
    {
      "inputs": [
        {
          "internalType": "address",
          "name": "operator",
          "type": "address"
        }
      ],
      "name": "ERC721InvalidOperator",
      "type": "error"
    },
    {
      "inputs": [
        {
          "internalType": "address",
          "name": "owner",
          "type": "address"
        }
      ],
      "name": "ERC721InvalidOwner",
      "type": "error"
    },
    {
      "inputs": [
        {
          "internalType": "address",
          "name": "receiver",
          "type": "address"
        }
      ],
      "name": "ERC721InvalidReceiver",
      "type": "error"
    },
    {
      "inputs": [
        {
          "internalType": "address",
          "name": "sender",
          "type": "address"
        }
      ],
      "name": "ERC721InvalidSender",
      "type": "error"
    },
    {
      "inputs": [
        {
          "internalType": "uint256",
          "name": "tokenId",
          "type": "uint256"
        }
      ],
      "name": "ERC721NonexistentToken",
      "type": "error"
    },
    {
      "anonymous": false,
      "inputs": [
        {
          "indexed": true,
          "internalType": "address",
          "name": "owner",
          "type": "address"
        },
        {
          "indexed": true,
          "internalType": "address",
          "name": "approved",
          "type": "address"
        },
        {
          "indexed": true,
          "internalType": "uint256",
          "name": "tokenId",
          "type": "uint256"
        }
      ],
      "name": "Approval",
      "type": "event"
    },
    {
      "anonymous": false,
      "inputs": [
        {
          "indexed": true,
          "internalType": "address",
          "name": "owner",
          "type": "address"
        },
        {
          "indexed": true,
          "internalType": "address",
          "name": "operator",
          "type": "address"
        },
        {
          "indexed": false,
          "internalType": "bool",
          "name": "approved",
          "type": "bool"
        }
      ],
      "name": "ApprovalForAll",
      "type": "event"
    },
    {
      "anonymous": false,
      "inputs": [
        {
          "indexed": false,
          "internalType": "uint256",
          "name": "_fromTokenId",
          "type": "uint256"
        },
        {
          "indexed": false,
          "internalType": "uint256",
          "name": "_toTokenId",
          "type": "uint256"
        }
      ],
      "name": "BatchMetadataUpdate",
      "type": "event"
    },
    {
      "anonymous": false,
      "inputs": [
        {
          "indexed": false,
          "internalType": "uint256",
          "name": "_tokenId",
          "type": "uint256"
        }
      ],
      "name": "MetadataUpdate",
      "type": "event"
    },
    {
      "anonymous": false,
      "inputs": [
        {
          "indexed": true,
          "internalType": "address",
          "name": "from",
          "type": "address"
        },
        {
          "indexed": true,
          "internalType": "address",
          "name": "to",
          "type": "address"
        },
        {
          "indexed": true,
          "internalType": "uint256",
          "name": "tokenId",
          "type": "uint256"
        }
      ],
      "name": "Transfer",
      "type": "event"
    },
    {
      "inputs": [
        {
          "internalType": "address",
          "name": "to",
          "type": "address"
        },
        {
          "internalType": "uint256",
          "name": "tokenId",
          "type": "uint256"
        }
      ],
      "name": "approve",
      "outputs": [],
      "stateMutability": "nonpayable",
      "type": "function"
    },
    {
      "inputs": [
        {
          "internalType": "address",
          "name": "owner",
          "type": "address"
        }
      ],
      "name": "balanceOf",
      "outputs": [
        {
          "internalType": "uint256",
          "name": "",
          "type": "uint256"
        }
      ],
      "stateMutability": "view",
      "type": "function"
    },
    {
      "inputs": [
        {
          "internalType": "uint256",
          "name": "tokenId",
          "type": "uint256"
        }
      ],
      "name": "getApproved",
      "outputs": [
        {
          "internalType": "address",
          "name": "",
          "type": "address"
        }
      ],
      "stateMutability": "view",
      "type": "function"
    },
    {
      "inputs": [
        {
          "internalType": "address",
          "name": "owner",
          "type": "address"
        },
        {
          "internalType": "address",
          "name": "operator",
          "type": "address"
        }
      ],
      "name": "isApprovedForAll",
      "outputs": [
        {
          "internalType": "bool",
          "name": "",
          "type": "bool"
        }
      ],
      "stateMutability": "view",
      "type": "function"
    },
    {
      "inputs": [],
      "name": "name",
      "outputs": [
        {
          "internalType": "string",
          "name": "",
          "type": "string"
        }
      ],
      "stateMutability": "view",
      "type": "function"
    },
    {
      "inputs": [
        {
          "internalType": "uint256",
          "name": "tokenId",
          "type": "uint256"
        }
      ],
      "name": "ownerOf",
      "outputs": [
        {
          "internalType": "address",
          "name": "",
          "type": "address"
        }
      ],
      "stateMutability": "view",
      "type": "function"
    },
    {
      "inputs": [
        {
          "internalType": "string",
          "name": "uri",
          "type": "string"
        }
      ],
      "name": "safeMint",
      "outputs": [],
      "stateMutability": "nonpayable",
      "type": "function"
    },
    {
      "inputs": [
        {
          "internalType": "address",
          "name": "from",
          "type": "address"
        },
        {
          "internalType": "address",
          "name": "to",
          "type": "address"
        },
        {
          "internalType": "uint256",
          "name": "tokenId",
          "type": "uint256"
        }
      ],
      "name": "safeTransferFrom",
      "outputs": [],
      "stateMutability": "nonpayable",
      "type": "function"
    },
    {
      "inputs": [
        {
          "internalType": "address",
          "name": "from",
          "type": "address"
        },
        {
          "internalType": "address",
          "name": "to",
          "type": "address"
        },
        {
          "internalType": "uint256",
          "name": "tokenId",
          "type": "uint256"
        },
        {
          "internalType": "bytes",
          "name": "data",
          "type": "bytes"
        }
      ],
      "name": "safeTransferFrom",
      "outputs": [],
      "stateMutability": "nonpayable",
      "type": "function"
    },
    {
      "inputs": [
        {
          "internalType": "address",
          "name": "operator",
          "type": "address"
        },
        {
          "internalType": "bool",
          "name": "approved",
          "type": "bool"
        }
      ],
      "name": "setApprovalForAll",
      "outputs": [],
      "stateMutability": "nonpayable",
      "type": "function"
    },
    {
      "inputs": [
        {
          "internalType": "bytes4",
          "name": "interfaceId",
          "type": "bytes4"
        }
      ],
      "name": "supportsInterface",
      "outputs": [
        {
          "internalType": "bool",
          "name": "",
          "type": "bool"
        }
      ],
      "stateMutability": "view",
      "type": "function"
    },
    {
      "inputs": [],
      "name": "symbol",
      "outputs": [
        {
          "internalType": "string",
          "name": "",
          "type": "string"
        }
      ],
      "stateMutability": "view",
      "type": "function"
    },
    {
      "inputs": [
        {
          "internalType": "uint256",
          "name": "tokenId",
          "type": "uint256"
        }
      ],
      "name": "tokenURI",
      "outputs": [
        {
          "internalType": "string",
          "name": "",
          "type": "string"
        }
      ],
      "stateMutability": "view",
      "type": "function"
    },
    {
      "inputs": [],
      "name": "totalTokenCount",
      "outputs": [
        {
          "internalType": "uint256",
          "name": "",
          "type": "uint256"
        }
      ],
      "stateMutability": "view",
      "type": "function"
    },
    {
      "inputs": [
        {
          "internalType": "address",
          "name": "from",
          "type": "address"
        },
        {
          "internalType": "address",
          "name": "to",
          "type": "address"
        },
        {
          "internalType": "uint256",
          "name": "tokenId",
          "type": "uint256"
        }
      ],
      "name": "transferFrom",
      "outputs": [],
      "stateMutability": "nonpayable",
      "type": "function"
    }
  ],
  "bytecode": "0x608060405260016007553480156200001657600080fd5b506040518060400160405280600a81526020017f43686f726473204e4654000000000000000000000000000000000000000000008152506040518060400160405280600481526020017f434e465400000000000000000000000000000000000000000000000000000000815250816000908162000094919062000329565b508060019081620000a6919062000329565b50505062000410565b600081519050919050565b7f4e487b7100000000000000000000000000000000000000000000000000000000600052604160045260246000fd5b7f4e487b7100000000000000000000000000000000000000000000000000000000600052602260045260246000fd5b600060028204905060018216806200013157607f821691505b602082108103620001475762000146620000e9565b5b50919050565b60008190508160005260206000209050919050565b60006020601f8301049050919050565b600082821b905092915050565b600060088302620001b17fffffffffffffffffffffffffffffffffffffffffffffffffffffffffffffffff8262000172565b620001bd868362000172565b95508019841693508086168417925050509392505050565b6000819050919050565b6000819050919050565b60006200020a62000204620001fe84620001d5565b620001df565b620001d5565b9050919050565b6000819050919050565b6200022683620001e9565b6200023e620002358262000211565b8484546200017f565b825550505050565b600090565b6200025562000246565b620002628184846200021b565b505050565b5b818110156200028a576200027e6000826200024b565b60018101905062000268565b5050565b601f821115620002d957620002a3816200014d565b620002ae8462000162565b81016020851015620002be578190505b620002d6620002cd8562000162565b83018262000267565b50505b505050565b600082821c905092915050565b6000620002fe60001984600802620002de565b1980831691505092915050565b6000620003198383620002eb565b9150826002028217905092915050565b6200033482620000af565b67ffffffffffffffff81111562000350576200034f620000ba565b5b6200035c825462000118565b620003698282856200028e565b600060209050601f831160018114620003a157600084156200038c578287015190505b6200039885826200030b565b86555062000408565b601f198416620003b1866200014d565b60005b82811015620003db57848901518255600182019150602085019450602081019050620003b4565b86831015620003fb5784890151620003f7601f891682620002eb565b8355505b6001600288020188555050505b505050505050565b61258c80620004206000396000f3fe608060405234801561001057600080fd5b50600436106100f55760003560e01c8063695850fb11610097578063a22cb46511610066578063a22cb46514610284578063b88d4fde146102a0578063c87b56dd146102bc578063e985e9c5146102ec576100f5565b8063695850fb146101fc57806370a0823114610218578063764912ef1461024857806395d89b4114610266576100f5565b8063095ea7b3116100d3578063095ea7b31461017857806323b872dd1461019457806342842e0e146101b05780636352211e146101cc576100f5565b806301ffc9a7146100fa57806306fdde031461012a578063081812fc14610148575b600080fd5b610114600480360381019061010f9190611940565b61031c565b6040516101219190611988565b60405180910390f35b61013261032e565b60405161013f9190611a33565b60405180910390f35b610162600480360381019061015d9190611a8b565b6103c0565b60405161016f9190611af9565b60405180910390f35b610192600480360381019061018d9190611b40565b6103dc565b005b6101ae60048036038101906101a99190611b80565b6103f2565b005b6101ca60048036038101906101c59190611b80565b6104f4565b005b6101e660048036038101906101e19190611a8b565b610514565b6040516101f39190611af9565b60405180910390f35b61021660048036038101906102119190611d08565b610526565b005b610232600480360381019061022d9190611d51565b6105dd565b60405161023f9190611d8d565b60405180910390f35b610250610697565b60405161025d9190611d8d565b60405180910390f35b61026e6106ad565b60405161027b9190611a33565b60405180910390f35b61029e60048036038101906102999190611dd4565b61073f565b005b6102ba60048036038101906102b59190611eb5565b610755565b005b6102d660048036038101906102d19190611a8b565b610772565b6040516102e39190611a33565b60405180910390f35b61030660048036038101906103019190611f38565b610784565b6040516103139190611988565b60405180910390f35b600061032782610818565b9050919050565b60606000805461033d90611fa7565b80601f016020809104026020016040519081016040528092919081815260200182805461036990611fa7565b80156103b65780601f1061038b576101008083540402835291602001916103b6565b820191906000526020600020905b81548152906001019060200180831161039957829003601f168201915b5050505050905090565b60006103cb82610879565b506103d582610901565b9050919050565b6103ee82826103e961093e565b610946565b5050565b600073ffffffffffffffffffffffffffffffffffffffff168273ffffffffffffffffffffffffffffffffffffffff16036104645760006040517f64a0ae9200000000000000000000000000000000000000000000000000000000815260040161045b9190611af9565b60405180910390fd5b6000610478838361047361093e565b610958565b90508373ffffffffffffffffffffffffffffffffffffffff168173ffffffffffffffffffffffffffffffffffffffff16146104ee578382826040517f64283d7b0000000000000000000000000000000000000000000000000000000081526004016104e593929190611fd8565b60405180910390fd5b50505050565b61050f83838360405180602001604052806000815250610755565b505050565b600061051f82610879565b9050919050565b6000600882604051610538919061204b565b90815260200160405180910390205414610587576040517f08c379a000000000000000000000000000000000000000000000000000000000815260040161057e906120ae565b60405180910390fd5b60006007600081548092919061059c906120fd565b9190505590506105ac8183610b72565b6105b63382610bce565b806008836040516105c7919061204b565b9081526020016040518091039020819055505050565b60008073ffffffffffffffffffffffffffffffffffffffff168273ffffffffffffffffffffffffffffffffffffffff16036106505760006040517f89c62b640000000000000000000000000000000000000000000000000000000081526004016106479190611af9565b60405180910390fd5b600360008373ffffffffffffffffffffffffffffffffffffffff1673ffffffffffffffffffffffffffffffffffffffff168152602001908152602001600020549050919050565b600060016007546106a89190612145565b905090565b6060600180546106bc90611fa7565b80601f01602080910402602001604051908101604052809291908181526020018280546106e890611fa7565b80156107355780601f1061070a57610100808354040283529160200191610735565b820191906000526020600020905b81548152906001019060200180831161071857829003601f168201915b5050505050905090565b61075161074a61093e565b8383610bec565b5050565b6107608484846103f2565b61076c84848484610d5b565b50505050565b606061077d82610f12565b9050919050565b6000600560008473ffffffffffffffffffffffffffffffffffffffff1673ffffffffffffffffffffffffffffffffffffffff16815260200190815260200160002060008373ffffffffffffffffffffffffffffffffffffffff1673ffffffffffffffffffffffffffffffffffffffff16815260200190815260200160002060009054906101000a900460ff16905092915050565b6000634906490660e01b7bffffffffffffffffffffffffffffffffffffffffffffffffffffffff1916827bffffffffffffffffffffffffffffffffffffffffffffffffffffffff19161480610872575061087182611025565b5b9050919050565b60008061088583611107565b9050600073ffffffffffffffffffffffffffffffffffffffff168173ffffffffffffffffffffffffffffffffffffffff16036108f857826040517f7e2732890000000000000000000000000000000000000000000000000000000081526004016108ef9190611d8d565b60405180910390fd5b80915050919050565b60006004600083815260200190815260200160002060009054906101000a900473ffffffffffffffffffffffffffffffffffffffff169050919050565b600033905090565b6109538383836001611144565b505050565b60008061096484611107565b9050600073ffffffffffffffffffffffffffffffffffffffff168373ffffffffffffffffffffffffffffffffffffffff16146109a6576109a5818486611309565b5b600073ffffffffffffffffffffffffffffffffffffffff168173ffffffffffffffffffffffffffffffffffffffff1614610a37576109e8600085600080611144565b6001600360008373ffffffffffffffffffffffffffffffffffffffff1673ffffffffffffffffffffffffffffffffffffffff168152602001908152602001600020600082825403925050819055505b600073ffffffffffffffffffffffffffffffffffffffff168573ffffffffffffffffffffffffffffffffffffffff1614610aba576001600360008773ffffffffffffffffffffffffffffffffffffffff1673ffffffffffffffffffffffffffffffffffffffff168152602001908152602001600020600082825401925050819055505b846002600086815260200190815260200160002060006101000a81548173ffffffffffffffffffffffffffffffffffffffff021916908373ffffffffffffffffffffffffffffffffffffffff160217905550838573ffffffffffffffffffffffffffffffffffffffff168273ffffffffffffffffffffffffffffffffffffffff167fddf252ad1be2c89b69c2b068fc378daa952ba7f163c4a11628f55a4df523b3ef60405160405180910390a4809150509392505050565b80600660008481526020019081526020016000209081610b929190612325565b507ff8e1a15aba9398e019f0b49df1a4fde98ee17ae345cb5f6b5e2c27f5033e8ce782604051610bc29190611d8d565b60405180910390a15050565b610be88282604051806020016040528060008152506113cd565b5050565b600073ffffffffffffffffffffffffffffffffffffffff168273ffffffffffffffffffffffffffffffffffffffff1603610c5d57816040517f5b08ba18000000000000000000000000000000000000000000000000000000008152600401610c549190611af9565b60405180910390fd5b80600560008573ffffffffffffffffffffffffffffffffffffffff1673ffffffffffffffffffffffffffffffffffffffff16815260200190815260200160002060008473ffffffffffffffffffffffffffffffffffffffff1673ffffffffffffffffffffffffffffffffffffffff16815260200190815260200160002060006101000a81548160ff0219169083151502179055508173ffffffffffffffffffffffffffffffffffffffff168373ffffffffffffffffffffffffffffffffffffffff167f17307eab39ab6107e8899845ad3d59bd9653f200f220920489ca2b5937696c3183604051610d4e9190611988565b60405180910390a3505050565b60008373ffffffffffffffffffffffffffffffffffffffff163b1115610f0c578273ffffffffffffffffffffffffffffffffffffffff1663150b7a02610d9f61093e565b8685856040518563ffffffff1660e01b8152600401610dc1949392919061244c565b6020604051808303816000875af1925050508015610dfd57506040513d601f19601f82011682018060405250810190610dfa91906124ad565b60015b610e81573d8060008114610e2d576040519150601f19603f3d011682016040523d82523d6000602084013e610e32565b606091505b506000815103610e7957836040517f64a0ae92000000000000000000000000000000000000000000000000000000008152600401610e709190611af9565b60405180910390fd5b805181602001fd5b63150b7a0260e01b7bffffffffffffffffffffffffffffffffffffffffffffffffffffffff1916817bffffffffffffffffffffffffffffffffffffffffffffffffffffffff191614610f0a57836040517f64a0ae92000000000000000000000000000000000000000000000000000000008152600401610f019190611af9565b60405180910390fd5b505b50505050565b6060610f1d82610879565b506000600660008481526020019081526020016000208054610f3e90611fa7565b80601f0160208091040260200160405190810160405280929190818152602001828054610f6a90611fa7565b8015610fb75780601f10610f8c57610100808354040283529160200191610fb7565b820191906000526020600020905b815481529060010190602001808311610f9a57829003601f168201915b505050505090506000610fc86113e9565b90506000815103610fdd578192505050611020565b600082511115611012578082604051602001610ffa9291906124da565b60405160208183030381529060405292505050611020565b61101b84611426565b925050505b919050565b60007f80ac58cd000000000000000000000000000000000000000000000000000000007bffffffffffffffffffffffffffffffffffffffffffffffffffffffff1916827bffffffffffffffffffffffffffffffffffffffffffffffffffffffff191614806110f057507f5b5e139f000000000000000000000000000000000000000000000000000000007bffffffffffffffffffffffffffffffffffffffffffffffffffffffff1916827bffffffffffffffffffffffffffffffffffffffffffffffffffffffff1916145b8061110057506110ff8261148f565b5b9050919050565b60006002600083815260200190815260200160002060009054906101000a900473ffffffffffffffffffffffffffffffffffffffff169050919050565b808061117d5750600073ffffffffffffffffffffffffffffffffffffffff168273ffffffffffffffffffffffffffffffffffffffff1614155b156112b157600061118d84610879565b9050600073ffffffffffffffffffffffffffffffffffffffff168373ffffffffffffffffffffffffffffffffffffffff16141580156111f857508273ffffffffffffffffffffffffffffffffffffffff168173ffffffffffffffffffffffffffffffffffffffff1614155b801561120b57506112098184610784565b155b1561124d57826040517fa9fbf51f0000000000000000000000000000000000000000000000000000000081526004016112449190611af9565b60405180910390fd5b81156112af57838573ffffffffffffffffffffffffffffffffffffffff168273ffffffffffffffffffffffffffffffffffffffff167f8c5be1e5ebec7d5bd14f71427d1e84f3dd0314c0f7b2291e5b200ac8c7c3b92560405160405180910390a45b505b836004600085815260200190815260200160002060006101000a81548173ffffffffffffffffffffffffffffffffffffffff021916908373ffffffffffffffffffffffffffffffffffffffff16021790555050505050565b6113148383836114f9565b6113c857600073ffffffffffffffffffffffffffffffffffffffff168373ffffffffffffffffffffffffffffffffffffffff160361138957806040517f7e2732890000000000000000000000000000000000000000000000000000000081526004016113809190611d8d565b60405180910390fd5b81816040517f177e802f0000000000000000000000000000000000000000000000000000000081526004016113bf9291906124fe565b60405180910390fd5b505050565b6113d783836115ba565b6113e46000848484610d5b565b505050565b60606040518060400160405280600781526020017f697066733a2f2f00000000000000000000000000000000000000000000000000815250905090565b606061143182610879565b50600061143c6113e9565b9050600081511161145c5760405180602001604052806000815250611487565b80611466846116b3565b6040516020016114779291906124da565b6040516020818303038152906040525b915050919050565b60007f01ffc9a7000000000000000000000000000000000000000000000000000000007bffffffffffffffffffffffffffffffffffffffffffffffffffffffff1916827bffffffffffffffffffffffffffffffffffffffffffffffffffffffff1916149050919050565b60008073ffffffffffffffffffffffffffffffffffffffff168373ffffffffffffffffffffffffffffffffffffffff16141580156115b157508273ffffffffffffffffffffffffffffffffffffffff168473ffffffffffffffffffffffffffffffffffffffff16148061157257506115718484610784565b5b806115b057508273ffffffffffffffffffffffffffffffffffffffff1661159883610901565b73ffffffffffffffffffffffffffffffffffffffff16145b5b90509392505050565b600073ffffffffffffffffffffffffffffffffffffffff168273ffffffffffffffffffffffffffffffffffffffff160361162c5760006040517f64a0ae920000000000000000000000000000000000000000000000000000000081526004016116239190611af9565b60405180910390fd5b600061163a83836000610958565b9050600073ffffffffffffffffffffffffffffffffffffffff168173ffffffffffffffffffffffffffffffffffffffff16146116ae5760006040517f73c6ac6e0000000000000000000000000000000000000000000000000000000081526004016116a59190611af9565b60405180910390fd5b505050565b6060600060016116c284611781565b01905060008167ffffffffffffffff8111156116e1576116e0611bdd565b5b6040519080825280601f01601f1916602001820160405280156117135781602001600182028036833780820191505090505b509050600082602001820190505b600115611776578080600190039150507f3031323334353637383961626364656600000000000000000000000000000000600a86061a8153600a858161176a57611769612527565b5b04945060008503611721575b819350505050919050565b600080600090507a184f03e93ff9f4daa797ed6e38ed64bf6a1f01000000000000000083106117df577a184f03e93ff9f4daa797ed6e38ed64bf6a1f01000000000000000083816117d5576117d4612527565b5b0492506040810190505b6d04ee2d6d415b85acef8100000000831061181c576d04ee2d6d415b85acef8100000000838161181257611811612527565b5b0492506020810190505b662386f26fc10000831061184b57662386f26fc10000838161184157611840612527565b5b0492506010810190505b6305f5e1008310611874576305f5e100838161186a57611869612527565b5b0492506008810190505b612710831061189957612710838161188f5761188e612527565b5b0492506004810190505b606483106118bc57606483816118b2576118b1612527565b5b0492506002810190505b600a83106118cb576001810190505b80915050919050565b6000604051905090565b600080fd5b600080fd5b60007fffffffff0000000000000000000000000000000000000000000000000000000082169050919050565b61191d816118e8565b811461192857600080fd5b50565b60008135905061193a81611914565b92915050565b600060208284031215611956576119556118de565b5b60006119648482850161192b565b91505092915050565b60008115159050919050565b6119828161196d565b82525050565b600060208201905061199d6000830184611979565b92915050565b600081519050919050565b600082825260208201905092915050565b60005b838110156119dd5780820151818401526020810190506119c2565b60008484015250505050565b6000601f19601f8301169050919050565b6000611a05826119a3565b611a0f81856119ae565b9350611a1f8185602086016119bf565b611a28816119e9565b840191505092915050565b60006020820190508181036000830152611a4d81846119fa565b905092915050565b6000819050919050565b611a6881611a55565b8114611a7357600080fd5b50565b600081359050611a8581611a5f565b92915050565b600060208284031215611aa157611aa06118de565b5b6000611aaf84828501611a76565b91505092915050565b600073ffffffffffffffffffffffffffffffffffffffff82169050919050565b6000611ae382611ab8565b9050919050565b611af381611ad8565b82525050565b6000602082019050611b0e6000830184611aea565b92915050565b611b1d81611ad8565b8114611b2857600080fd5b50565b600081359050611b3a81611b14565b92915050565b60008060408385031215611b5757611b566118de565b5b6000611b6585828601611b2b565b9250506020611b7685828601611a76565b9150509250929050565b600080600060608486031215611b9957611b986118de565b5b6000611ba786828701611b2b565b9350506020611bb886828701611b2b565b9250506040611bc986828701611a76565b9150509250925092565b600080fd5b600080fd5b7f4e487b7100000000000000000000000000000000000000000000000000000000600052604160045260246000fd5b611c15826119e9565b810181811067ffffffffffffffff82111715611c3457611c33611bdd565b5b80604052505050565b6000611c476118d4565b9050611c538282611c0c565b919050565b600067ffffffffffffffff821115611c7357611c72611bdd565b5b611c7c826119e9565b9050602081019050919050565b82818337600083830152505050565b6000611cab611ca684611c58565b611c3d565b905082815260208101848484011115611cc757611cc6611bd8565b5b611cd2848285611c89565b509392505050565b600082601f830112611cef57611cee611bd3565b5b8135611cff848260208601611c98565b91505092915050565b600060208284031215611d1e57611d1d6118de565b5b600082013567ffffffffffffffff811115611d3c57611d3b6118e3565b5b611d4884828501611cda565b91505092915050565b600060208284031215611d6757611d666118de565b5b6000611d7584828501611b2b565b91505092915050565b611d8781611a55565b82525050565b6000602082019050611da26000830184611d7e565b92915050565b611db18161196d565b8114611dbc57600080fd5b50565b600081359050611dce81611da8565b92915050565b60008060408385031215611deb57611dea6118de565b5b6000611df985828601611b2b565b9250506020611e0a85828601611dbf565b9150509250929050565b600067ffffffffffffffff821115611e2f57611e2e611bdd565b5b611e38826119e9565b9050602081019050919050565b6000611e58611e5384611e14565b611c3d565b905082815260208101848484011115611e7457611e73611bd8565b5b611e7f848285611c89565b509392505050565b600082601f830112611e9c57611e9b611bd3565b5b8135611eac848260208601611e45565b91505092915050565b60008060008060808587031215611ecf57611ece6118de565b5b6000611edd87828801611b2b565b9450506020611eee87828801611b2b565b9350506040611eff87828801611a76565b925050606085013567ffffffffffffffff811115611f2057611f1f6118e3565b5b611f2c87828801611e87565b91505092959194509250565b60008060408385031215611f4f57611f4e6118de565b5b6000611f5d85828601611b2b565b9250506020611f6e85828601611b2b565b9150509250929050565b7f4e487b7100000000000000000000000000000000000000000000000000000000600052602260045260246000fd5b60006002820490506001821680611fbf57607f821691505b602082108103611fd257611fd1611f78565b5b50919050565b6000606082019050611fed6000830186611aea565b611ffa6020830185611d7e565b6120076040830184611aea565b949350505050565b600081905092915050565b6000612025826119a3565b61202f818561200f565b935061203f8185602086016119bf565b80840191505092915050565b6000612057828461201a565b915081905092915050565b7f546869732055524920776173206d696e74656420616c72656164790000000000600082015250565b6000612098601b836119ae565b91506120a382612062565b602082019050919050565b600060208201905081810360008301526120c78161208b565b9050919050565b7f4e487b7100000000000000000000000000000000000000000000000000000000600052601160045260246000fd5b600061210882611a55565b91507fffffffffffffffffffffffffffffffffffffffffffffffffffffffffffffffff820361213a576121396120ce565b5b600182019050919050565b600061215082611a55565b915061215b83611a55565b9250828203905081811115612173576121726120ce565b5b92915050565b60008190508160005260206000209050919050565b60006020601f8301049050919050565b600082821b905092915050565b6000600883026121db7fffffffffffffffffffffffffffffffffffffffffffffffffffffffffffffffff8261219e565b6121e5868361219e565b95508019841693508086168417925050509392505050565b6000819050919050565b600061222261221d61221884611a55565b6121fd565b611a55565b9050919050565b6000819050919050565b61223c83612207565b61225061224882612229565b8484546121ab565b825550505050565b600090565b612265612258565b612270818484612233565b505050565b5b818110156122945761228960008261225d565b600181019050612276565b5050565b601f8211156122d9576122aa81612179565b6122b38461218e565b810160208510156122c2578190505b6122d66122ce8561218e565b830182612275565b50505b505050565b600082821c905092915050565b60006122fc600019846008026122de565b1980831691505092915050565b600061231583836122eb565b9150826002028217905092915050565b61232e826119a3565b67ffffffffffffffff81111561234757612346611bdd565b5b6123518254611fa7565b61235c828285612298565b600060209050601f83116001811461238f576000841561237d578287015190505b6123878582612309565b8655506123ef565b601f19841661239d86612179565b60005b828110156123c5578489015182556001820191506020850194506020810190506123a0565b868310156123e257848901516123de601f8916826122eb565b8355505b6001600288020188555050505b505050505050565b600081519050919050565b600082825260208201905092915050565b600061241e826123f7565b6124288185612402565b93506124388185602086016119bf565b612441816119e9565b840191505092915050565b60006080820190506124616000830187611aea565b61246e6020830186611aea565b61247b6040830185611d7e565b818103606083015261248d8184612413565b905095945050505050565b6000815190506124a781611914565b92915050565b6000602082840312156124c3576124c26118de565b5b60006124d184828501612498565b91505092915050565b60006124e6828561201a565b91506124f2828461201a565b91508190509392505050565b60006040820190506125136000830185611aea565b6125206020830184611d7e565b9392505050565b7f4e487b7100000000000000000000000000000000000000000000000000000000600052601260045260246000fdfea26469706673582212209622865d7d28333241be92aa2a336397c1f238515fdf7d9da1b7773ab47049a064736f6c63430008140033",
  "linkReferences": {},
  "deployedLinkReferences": {}
}